:020000040800F2
:100000005819002089010008FD0C0008870B000822
:10001000F90C000839020008A117000800000000D0
:10002000000000000000000000000000D9100008DF
:100030008D0700080000000025100008BD12000810
:10004000A3010008A3010008A3010008A301000800
:10005000A3010008A3010008A3010008A3010008F0
:10006000A3010008A3010008A3010008A3010008E0
:10007000A3010008A3010008A3010008A3010008D0
:10008000A3010008A3010008A3010008A3010008C0
:10009000A3010008A3010008A30100083508000817
:1000A000A3010008A3010008A3010008A3010008A0
:1000B00021130008A3010008A3010008A301000800
:1000C000A3010008A3010008A3010008A301000880
:1000D000A301000821160008A3010008A3010008DD
:1000E00091070008A3010008A301000800F002F82E
:1000F00000F03AF80AA090E8000C82448344AAF188
:100100000107DA4501D100F02FF8AFF2090EBAE885
:100110000F0013F0010F18BFFB1A43F0010318473B
:10012000D41C0000F41C0000103A24BF78C878C129
:10013000FAD8520724BF30C830C144BF04680C60ED
:10014000704700000023002400250026103A28BF35
:1001500078C1FBD8520728BF30C148BF0B60704739
:100160001FB51FBD10B510BD00F033F81146FFF7E5
:10017000F7FF01F037FC00F051F803B4FFF7F2FF8E
:1001800003BC01F00FFB0000094880470948004705
:10019000FEE7FEE7FEE7FEE7FEE7FEE7FEE7FEE737
:1001A000FEE7FEE704480549054A064B7047000094
:1001B000C1120008ED000008580500205819002061
:1001C0005809002058090020704770477047704751
:1001D0007047754600F02CF8AE4605006946534658
:1001E00020F00700854618B020B5FFF7DBFFBDE81B
:1001F00020404FF000064FF000074FF000084FF08E
:10020000000B21F00701AC46ACE8C009ACE8C0091E
:10021000ACE8C009ACE8C0098D46704710B504468B
:10022000AFF300802046BDE81040FFF7A6BF0000F6
:1002300000487047F804002000BFFEE710B5002119
:10024000837A012202FA03F13D4A126842F0010268
:100250003B4B1A603A4A1C3212688A43384B1C33B3
:100260001A60027BCAB9364A0C3212688A43344B90
:100270000C331A604288C38842EA0343304A403252
:10028000847A42F834300288838842EA03432C4A55
:100290004032847A02EBC4025360027B012A19D1F6
:1002A000274A0C3212680A43254B0C331A604288E5
:1002B000038842EA0343224A4032847A42F83430C7
:1002C000C288838842EA03431D4A4032847A02EBA3
:1002D000C4025360C27A3AB9194A121D12688A439D
:1002E000174B1B1D1A6006E0154A121D12680A43BF
:1002F000134B1B1D1A60028932B9114A143212685D
:100300008A430F4B14331A600289012A06D10C4A22
:10031000143212680A430A4B14331A60427B012AD2
:1003200006D1074A1C3212680A43054B1C331A6077
:10033000034A126822F00102014B1A6010BD00004E
:100340000066004030B5024600200023146824F007
:1003500002041460146844F00104146000E05B1CA3
:10036000546804F001041CB94FF6FF74A342F6D19F
:10037000546804F001040CB900206CE08C79012C65
:1003800004D1146844F08004146003E0146824F07D
:1003900080041460CC79012C04D1146844F040042A
:1003A000146003E0146824F0400414600C7A012CFB
:1003B00004D1146844F02004146003E0146824F0AD
:1003C000200414604C7A012C04D1146844F0100409
:1003D000146003E0146824F0100414608C7A012C7B
:1003E00004D1146844F00804146003E0146824F095
:1003F00008041460CC7A012C04D1146844F004047D
:10040000146003E0146824F0040414608C78A407DA
:10041000CD7844EA05640D7944EA05444D7944EA0F
:1004200005540D886D1E2C43D461146824F001041A
:100430001460002300E05B1C546804F001041CB14C
:100440004FF6FF74A342F6D1546804F001040CB1D6
:10045000002000E0012030BD2DE9F04188B00446C5
:100460000D4616461F46DDF838800121042000F0B5
:1004700023FE0121480600F00FFE4FF48050ADF836
:100480001C0003208DF81E0018208DF81F0007A9FE
:10049000234800F097FA4FF40060ADF81C004820A4
:1004A0008DF81F0007A91E4800F08CFA00208DF877
:1004B00016008DF817008DF8180001208DF819002E
:1004C00000208DF81A008DF81B008DF812808DF831
:1004D00013408DF814608DF81550ADF8107004A914
:1004E0001048FFF72FFF00208DF80A008DF80B0051
:1004F00001208DF80C000020ADF80000ADF80200DE
:10050000ADF80400ADF80600ADF8080001208DF844
:100510000D006846FFF792FE002008B0BDE8F081AC
:10052000000801400064004010B5024600209368B6
:1005300003F08063B3F1806F00D110E0936803F0A3
:100540000063B3F1006F01D1012008E0936803F06C
:100550008053B3F1805F01D1022000E00420042821
:1005600074D002F5C07303EB00131B6803F00104A1
:1005700002F5C07303EB00131C600B7A7BB94B7A56
:100580000C8843EA445302F5C07404EB0014246859
:10059000234302F5C07404EB0014236010E00B7ACF
:1005A0004C6843EAC4034C7A234302F5C07404EB5D
:1005B00000142468234302F5C07404EB0014236084
:1005C0008B7A03F00F038B7202F5C07303EB0013F9
:1005D0005B6823F00F0402F5C07303EB00135C604B
:1005E00002F5C07303EB00135B688C7A234302F5BA
:1005F000C07404EB001463608B7B1C064B7B44EAE5
:1006000003440B7B44EA0323CC7A234302F5C074F2
:1006100004EB0014A3608B7C1C064B7C44EA03446F
:100620000B7C44EA0323CC7B234302F5C07404EB28
:100630000014E36002F5C07303EB00131B6843F082
:10064000010402F5C07303EB00131C6010BD000031
:1006500010B50246002321B1012907D002290FD18C
:1006600009E090681D4C00EA04030BE090681C4C04
:1006700000EA040306E090681A4C00EA040301E073
:10068000002300BF00BF184C181BA34216D007DC84
:1006900083B16FF08060184470B1022818D111E066
:1006A000B0F5007F10D0114C204448B1B0F5003FA8
:1006B0000ED10BE002230DE000230BE0002309E044
:1006C000002307E0012305E0012303E0012301E00B
:1006D000002300BF00BFD8B210BD0000030000041B
:1006E0000003000800000310000100080001FFF7EC
:1006F000F0B585B007460D460024194800780090F3
:1007000017480078019000208DF808008DF8090046
:100710008DF80A5000BF05E0395D0DF10B00015561
:10072000601C84B2AC42F7DB69460E48FFF7FCFE62
:100730000646002401E0601C84B231460948FFF7F8
:1007400087FF18B940F6FF708442F4DB40F6FF7073
:10075000844202DB012005B0F0BD0020FBE7000071
:10076000380000200064004021B1026842F001021C
:10077000026004E002684FF6FE731A4002607047A0
:100780000146486880B2704741607047704700007A
:1007900010B54FF4806000F09FF801283BD1810232
:1007A0001D4800F0E3F990BB4FF0804000F02DFEB3
:1007B0001A49098808441A4948801A491A48007891
:1007C000001D085C1E281CDA154841881648007870
:1007D000001DC0EB0010154A02EB8002114B1248BD
:1007E0000078001D185C22F8101019460E48007899
:1007F000001D085C401CC1B21A460B480078001D61
:10080000115401210A4A08480078001D11544FF480
:10081000806000F05BF810BD000801401C00002063
:1008200040000020EE02002024000020D200002022
:10083000C800002010B54FF4007000F04DF80128FA
:1008400034D141021A4800F091F958BB4FF0804072
:1008500000F0DBFD1749098808441749088017484C
:1008600017490978405C1E2817DA13480088144994
:100870000978C1EB0111134A02EB81010F4A104BB9
:100880001B78D25C21F812000C480D490978405CB5
:10089000401C0A490A4A1278885401200A49084A29
:1008A000127888544FF4007000F010F810BD00006A
:1008B000000801401C00002040000020EE02002043
:1008C00024000020D2000020C80000200149086058
:1008D000704700001404014001460020034A1268DA
:1008E0000A400AB1012000E00020704714040140D2
:1008F000002123498279002A3AD00A461268036807
:100900009A430B461A600A1D126803689A430B1D2E
:100910001A60027911440A6803681A430A60184A87
:100920000832126803689A43154B08331A601A1D7F
:10093000126803689A43124B0C331A604279102AEA
:100940000ED11A1F126803681A430D4B08331A6040
:100950001A1D126803681A43094B0C331A600DE024
:100960000749427911440A6803681A430A6005E09E
:10097000027911440A6803689A430A6070470000CC
:100980000004014030B500228B071C0F0F2303FA2F
:1009900004F20B4B8C1053F824309343084C8D1009
:1009A00044F8253023468C1053F824308C07240F4C
:1009B00000FA04F42343024C8D1044F8253030BD76
:1009C000080001402DE9F0410246002500260020E4
:1009D00000230024002791F803C00CF00F0591F8C4
:1009E00003C00CF0100CBCF1000F03D091F802C052
:1009F0004CEA050591F800C0BCF1000F31D0146835
:100A000000202BE04FF0010C0CFA00F3B1F800C00D
:100A10000CEA03069E4220D183004FF00F0C0CFA23
:100A200003F7BC4305FA03FC4CEA040491F803C045
:100A3000BCF1280F06D14FF0010C0CFA00FCC2F8F3
:100A400014C00AE091F803C0BCF1480F05D14FF083
:100A5000010C0CFA00FCC2F810C0401C0828D1D3CD
:100A60001460B1F800C0BCF1FF0F34DD5468002001
:100A70002EE000F1080C4FF0010808FA0CF3B1F871
:100A800000C00CEA03069E4221D183004FF00F0CF8
:100A90000CFA03F7BC4305FA03FC4CEA040491F892
:100AA00003C0BCF1280F05D100F1080C08FA0CF8BE
:100AB000C2F8148091F803C0BCF1480F07D100F1CF
:100AC000080C4FF0010808FA0CF8C2F81080401C1E
:100AD0000828CED35460BDE8F0810000F0B50A4686
:100AE000002300240021002500F00046B6F1004F4D
:100AF00002D11D4EF16901E01B4E7168C0F3034540
:100B000083B200F44016B6F5401F08D121F07061A1
:100B1000154E766826F07066134F7E6012E000F482
:100B20008016B6F5801F06D1032606FA05F4A14308
:100B300041F0706106E0460D360103FA06F6B14356
:100B400041F0706122B1460D360103FA06F63143D9
:100B500000F00046B6F1004F02D1034EF16101E012
:100B6000014E7160F0BD000000000140024600200F
:100B700093680B400BB1012000E0002070474161F9
:100B800070470161704700BFFEE7000010B50446E2
:100B90004FF400412848FFF7E9FF30B127480078BB
:100BA00040F008002549087005E02448007820F04E
:100BB0000800224908704FF480411F48FFF7D6FF14
:100BC00030B11E48007840F004001C49087005E070
:100BD0001A48007820F00400184908704FF40051BA
:100BE0001548FFF7C3FF30B11448007840F0020009
:100BF0001249087005E01148007820F002000F4902
:100C0000087004210E48FFF7B1FF30B10B4800789F
:100C100040F001000949087005E00848007820F01C
:100C200001000649087005480078102802DA0348D8
:100C30000078207010BD000000100140140000205A
:100C40000008014008B50121142000F035FA4FF4E6
:100C50006040ADF8000048208DF803006946074861
:100C6000FFF7B0FE0420ADF8000048208DF8030027
:100C700069460348FFF7A6FE08BD000000100140CA
:100C80000008014008B50121082000F015FA0121F3
:100C9000084600F011FA01210A48FFF71FFF08205B
:100CA000ADF8000010208DF8030003208DF802003D
:100CB00069460548FFF786FE08210348FFF761FFF4
:100CC00008BD000000023000000C0140102810DABE
:100CD00039B1084A1268012383401A43054B1A6050
:100CE00007E031B9034A1268012383409A43014B5C
:100CF0001A6070470004014000BFFEE77047000023
:100D000070B5002100230F22C47804B3154C246869
:100D100004F4E064C4F5E064210AC1F10403CA40AC
:100D2000447804FA03F184781440214309010E4CFD
:100D30000678A155047804F01F050124AC4005781D
:100D40006D11AD0005F1E025C5F8004109E004781A
:100D500004F01F050124AC40044D0678761145F8D7
:100D6000264070BD0CED00E000E400E080E100E012
:100D700002490143024A1160704700000000FA0571
:100D80000CED00E030B500220024038845885C1B90
:100D9000231E01DB1D4600E05D42B5F5C87F0FDA7A
:100DA000038845882B44142593FBF5F39AB2FF2A58
:100DB00001DDFF2202E0232A00DA00220A8001E09E
:100DC0000B880B8030BD70B5002419E004F1B00130
:100DD000C8B2002100F0ECF80021084600F0E8F865
:100DE0000021102000F0E4F8002505E0012100209A
:100DF00000F0DEF8681CC5B2802DF7DB601CC4B2C1
:100E0000082CE3DB70BD000008B50121042000F0D0
:100E100053F93020ADF8000010208DF803000320B6
:100E20008DF8020069465448FFF7CCFD3021524846
:100E3000FFF7A7FE0121082000F03EF9E020ADF801
:100E4000000010208DF8030003208DF80200694691
:100E50004A48FFF7B7FDE0214848FFF792FE4021DE
:100E60004648FFF78EFE642000F0DEFC4021434838
:100E7000FFF785FEC82000F0D7FC40213F48FFF770
:100E800080FE0021AE2000F093F80021084600F01B
:100E90008FF80021102000F08BF80021402000F096
:100EA00087F80021812000F083F80021CF2000F096
:100EB0007FF80021A12000F07BF80021C82000F07D
:100EC00077F80021A62000F073F80021A82000F098
:100ED0006FF800213F2000F06BF80021D32000F0D4
:100EE00067F80021084600F063F80021D52000F0E3
:100EF0005FF80021802000F05BF80021D92000F08D
:100F000057F80021F12000F053F80021DA2000F01A
:100F10004FF80021122000F04BF80021DB2000F0F8
:100F200047F80021402000F043F80021202000F085
:100F30003FF80021022000F03BF800218D2000F056
:100F400037F80021142000F033F80021A42000F02D
:100F50002FF80021A62000F02BF80021AF2000F090
:100F600027F80021AF2000F023F8FFF72CFF002125
:100F7000084600F005F808BD00080140000C0140DB
:100F800070B504460D4605F1B001C8B2002100F06D
:100F90000FF8102141EA1410002100F009F804F0C4
:100FA0000F0141F00100002100F002F870BD0000C7
:100FB00070B504460E4626B180211848FFF7E1FDC2
:100FC00003E080211548FFF7DAFD10211448FFF7F0
:100FD000D6FD002517E020211148FFF7D0FD04F0D1
:100FE000800020B120210D48FFF7CBFD03E0202138
:100FF0000A48FFF7C4FD20210948FFF7C2FD60063B
:10100000040E681CC5B2082DE5DB10210448FFF76B
:10101000B8FD80210148FFF7B4FD70BD000C014010
:10102000000801407047000010B51948006808B971
:10103000012000E0002016490860322000F0F4FB97
:101040001448D0F88C0108B9012000E000201049B4
:1010500008604FF4E17000F0E7FB0E48D0F88C0117
:1010600008B9012000E0002009490860322000F0A2
:10107000DBFB0848D0F88C0108B9012000E0002013
:10108000034908604FF4E17000F0CEFB10BD000092
:101090008C8121420080214229B1064AD269024353
:1010A000044BDA6104E0034AD2698243014BDA61FE
:1010B000704700000010024029B1064A92690243BD
:1010C000044B9A6104E0034A92698243014B9A619E
:1010D00070470000001002407047000010B5044641
:1010E000012C06D0022C0CD0032C12D0042C1ED1C3
:1010F00016E000201149086001201149C1F8B4012F
:1011000016E001200D49086000200D49C1F8B40126
:101110000EE00020094908600949C1F8B40107E060
:101120000120064908600649C1F8B40100E000BF8B
:1011300000BF0A2000F09EFB10BD0000B0812142DC
:101140000080214210B50446012C06D0022C0CD0A0
:10115000032C12D0042C1ED116E000201149086087
:1011600001201149C1F8BC0116E001200D490860B9
:1011700000200D49C1F8BC010EE0002009490860BB
:101180000949C1F8BC0107E0012006490860064989
:10119000C1F8BC0100E000BF00BF0A2000F06AFBFC
:1011A00010BD0000B88121420080214210B500F03E
:1011B00001F810BD0CB50020019000903348006884
:1011C00040F480303149086000BF3048006800F4C6
:1011D000003000900198401C0190009818B90198C7
:1011E000B0F5A06FF1D12948006800F4003010B1CB
:1011F0000120009001E0002000900098012843D1D8
:101200002348006840F01000214908600846006843
:1012100020F0030008600846006840F00200086003
:101220001A484068194948600846406848600846BE
:10123000406840F4806048600846406820F47C10B4
:1012400048600846406840F4E81048600846006876
:1012500040F08070086000BF0C48006800F000702B
:101260000028F9D00948406820F003000749486089
:101270000846406840F00200486000BF03484068EC
:1012800000F00C000828F9D10CBD0000001002404D
:1012900000200240042808D14FF0E021096941F004
:1012A00004014FF0E022116107E04FF0E0210969ED
:1012B00021F004014FF0E0221161704770470000F7
:1012C00010B51348006840F0010011490860084655
:1012D0004068104908400E494860084600680E49B9
:1012E00008400B4908600846006820F48020086028
:1012F0000846406820F4FE0048604FF41F008860F4
:10130000FFF754FF4FF000600449086010BD000073
:10131000001002400000FFF8FFFFF6FE08ED00E0BD
:1013200010B50121880700F073F8012811D1094890
:101330000088401C074908800846008841F2707107
:10134000884202DD0846034908800121880700F031
:101350004DF810BD4600002030B589B005460C465A
:1013600001210420FFF7A8FE01210220FFF794FECF
:1013700001210846FFF7A0FEC020ADF8200018208C
:101380008DF8230003208DF8220008A91548FFF7E7
:1013900019FBADF81850ADF814400020ADF81A0054
:1013A000ADF8160005A9104800F0E8F86020ADF887
:1013B00004000120ADF806000020ADF80A00ADF8E9
:1013C0000C0001A9084800F035F801A9064800F012
:1013D0007DF80121044800F00CF800F0E7F909B0AD
:1013E00030BD00000008014000040040CA430282F2
:1013F000704721B1028842F00102028004E00288B5
:101400004FF6FE731A40028070470146888C704781
:1014100002460020138A0B400BB1012000E000209F
:1014200070471AB183890B43838102E083898B4320
:101430008381704770B5002400220023058C4FF68D
:10144000FE7635400584028C8388048B4FF68F75B9
:101450002C40B51E2C400D882C43751E2A400D894A
:101460002A434D882A43144DA8420BD0134DA8425D
:1014700008D0134DA84205D0124DA84202D0124DFB
:10148000A84213D14FF6F7752A404D892A434FF6EB
:10149000FB752A408D882A434FF6FF652B404FF697
:1014A000FF552B408D892B43CD892B4383800483AB
:1014B000CD888586028470BD002C01400034014037
:1014C00000400140004401400048014070B5002444
:1014D00000220023058C4FF6EF7635400584028C00
:1014E0008388048B48F6FF752C404FF6FF452C404F
:1014F0000D884FF6FF7606EA05252C434FF6DF757B
:101500002A400D8906EA05152A434D8806EA051585
:101510002A43154DA84202D0144DA8421DD14FF6C2
:101520007F752A404D894FF6FF7606EA05152A4356
:101530004FF6BF752A408D8806EA05152A434FF6F7
:10154000FF352B404FF2FF752B408D8906EA85054C
:101550002B43CD8906EA85052B4383800483CD8800
:101560000587028470BD0000002C0140003401405A
:101570008186704701877047818470470022028806
:101580001D4B98420ED01D4B98420BD0B0F1804FAE
:1015900008D01B4B984205D01A4B984202D01A4BE8
:1015A000984204D14FF68F731A404B881A43174B59
:1015B000984207D0164B984204D04FF6FF431A408A
:1015C000CB881A4302808B8883850B8803850A4B5E
:1015D00098420BD0094B984208D00E4B984205D048
:1015E0000D4B984202D00D4B984201D10B7A0386E5
:1015F0000123838270470000002C01400034014029
:101600000004004000080040000C004000100040B2
:1016100000140040004001400044014000480140E7
:1016200010B5002400BF40F22441134800F02EF80A
:1016300000B311480488001D048801200F49087078
:1016400000210F48FFF790F80D48FFF799F84FF683
:10165000FF71081A0B49088000200B49094A1288BB
:1016600088544FF6FF710648FFF78EF801210448B1
:10167000FFF77AF810BD000000380140520000204A
:101680005800024050000020F702002070B50246CA
:10169000002400230025002040F66A16B14200D144
:1016A00000BFC1F3421501F01F03012606FA03F340
:1016B000012D02D19689334006E0022D02D1168A0F
:1016C000334001E0968A33400C12012606FA04F4F6
:1016D0001688344013B10CB1012000E0002070BD29
:1016E00070B505460024002600BF09E02919897855
:1016F000204604EBD0725210064B9954A01CC4B281
:10170000112CF3DB08210348FEF7F2FF06463046B2
:1017100070BD00002E00002010B5012417E000204D
:10172000184908700FE0184816490978405C1749B5
:10173000087008460178164800F0BEF91148007894
:10174000401C104908700F4800780428EBDB114852
:1017500000780928E3DB01240EE00D4A02EB440186
:1017600004EB44020C4B03EB4200FFF70BFB0020A1
:101770000A490855601CC4B2092CEEDB012005495A
:10178000087010BD23000020270000202400002046
:10179000540000202600002070000020A600002039
:1017A00000BFFEE7014600BF7047000008B50121F9
:1017B0000820FFF781FC4FF47040ADF800001020C6
:1017C0008DF8030003208DF8020069460448FFF7F6
:1017D000F9F84FF470410248FFF7D3F908BD000053
:1017E000000C014010B56FF00400FFF753FD0A48EC
:1017F00000680A49B0FBF1F0094908700846007812
:1018000000EB4001C1EBC0104FF6FF7101EAC000D0
:101810000449088010BD00000000002000127A007A
:10182000480000204A0000200146114A12884A431D
:101830004FF0E0235A6100229A611A46126942F081
:1018400001021A6100BF4FF0E022106900F00102AE
:101850001AB100F48032002AF5D04FF0E02212696C
:1018600022F001024FF0E0231A6100229A617047D2
:101870004A0000200146114A12784A434FF0E02303
:101880005A6100229A611A46126942F001021A61F5
:1018900000BF4FF0E022106900F001021AB100F41D
:1018A0008032002AF5D04FF0E022126922F00102C6
:1018B0004FF0E0231A6100229A617047480000202F
:1018C0001CB502460023009301930021002000BFB5
:1018D0004B1C12F8133012F811401B1BDBB20DF831
:1018E00001304B1CD9B24B1E1DF80330142B06DD02
:1018F0004B1E1DF803301E2B01DA0429E8DB0429F6
:1019000001DB002000E001201CBD00001FB501210B
:101910000420FFF7D1FB01210846FFF7CDFB4FF470
:101920000070ADF80C0048208DF80F0003A92C487A
:10193000FFF748F84FF48060ADF80C0048208DF8B0
:101940000F0003A92648FFF73DF809210020FFF703
:1019500019F80A210020FFF715F84FF400700190E4
:1019600000208DF808000C208DF8090001208DF86A
:101970000A0001A8FEF7BCFF4FF480600190002030
:101980008DF808000C208DF8090001208DF80A0060
:1019900001A8FEF7ADFF17208DF8000000208DF89C
:1019A000010001208DF802008DF803006846FFF762
:1019B000A7F928208DF8000001208DF801008DF88E
:1019C00002008DF803006846FFF79AF9002109200C
:1019D000FFF77CF900210A20FFF778F91FBD00000E
:1019E0000008014008B5FFF7FDFEFFF72BF9FFF7F0
:1019F00049F9FFF719FB1648FFF7C8F84FF4A06044
:101A0000FFF7B6F9012004230822072100900020E7
:101A1000FEF722FDFFF7F8F9002140F20770FFF70B
:101A20009BFC47214FF6FF7000F018F8FFF76EFFA0
:101A30000CE0FFF771FE0748FFF752FE064800680A
:101A400008B9012000E0002003490860F1E7000028
:101A500038000020540000208C8121427FB50546CB
:101A60000C4601210846FFF717FBADF80850ADF80A
:101A700004400020ADF80A00ADF8060001A94FF0BF
:101A80008040FFF77BFD012211469007FFF7C9FC5C
:101A900001218807FFF7ADFC1C208DF80000012014
:101AA0008DF8010002208DF8020001208DF803005E
:101AB0006846FFF725F97FBD70B505460C46084816
:101AC000007809280BDA204600F00EF80548044992
:101AD0000978445402480078401C0149087070BDE0
:101AE00026000020AF00002010B504462046FFF776
:101AF000F5FA2046FFF726FB40F28331AF48FFF7A7
:101B000037FD40F28331AD48FFF734FDAC48008823
:101B1000FFF7B0FE0021A948FFF72AFD0021A748E2
:101B2000FFF728FDA7490988A54A1288881AFFF7F8
:101B3000A1FE4FF40071A448FFF718F818B901206E
:101B4000A24908550DE04FF400719F48FFF70EF8C9
:101B5000012806D100209D49085501210920FFF7E1
:101B6000B5F84FF480619848FFF700F820B90121DB
:101B7000964A201D11540EE04FF480619248FEF702
:101B8000F5FF012807D10021904A201D11540121A1
:101B90000A20FFF79BF801210846FFF77DFA012193
:101BA0000920FFF793F801210A20FFF78FF80021A1
:101BB0004FF08040FFF7E0FC8549098801EB4102C6
:101BC000C2EBC1117F4A1288C2EBC100FFF752FE7F
:101BD00000210920FFF77AF800210A20FFF776F8A4
:101BE00000207C49085500217A4A201D11547A486A
:101BF000005DD0B97948005D79490978884259DAA1
:101C00007848008804EB4401774A02EB4101734AAB
:101C1000125D21F812007148005D401C6F490855A3
:101C200000210920FFF752F844E06B48005DE8B35B
:101C30006648005DB0B16948005D6949097888422D
:101C400038DA6A48007804EB4401674A02EB410144
:101C5000624A125D21F812006048005D401C5F4935
:101C6000085527E05D48005D5D490978884221DA22
:101C7000C4EB04115E4A02EB8100FFF721FEA8B914
:101C8000C4EB04105A4931F8200000EB0010642125
:101C900090FBF1F004EB4401534A02EB41014F4A3F
:101CA000125D21F812004D48005D00E002E0401C8A
:101CB0004A4908554849201D085C00BB4749201D7A
:101CC000085C4749097888426DDA46480188201D3A
:101CD00000EB4000444A02EB4002404B201D185CE0
:101CE00022F810101946201D085C401CC1B21A468B
:101CF000201D115400210A20FEF7E8FF53E0364969
:101D0000201D085CF8B13149201D085CE0B1334961
:101D1000201D085C32490978884244DA334801784A
:101D2000201D00EB4000304A02EB40022B4B201DEF
:101D3000185C22F810101946201D085C401CC1B226
:101D40001A46201D11542EE02449201D085C244908
:101D50000978884227DA211DC1EB0111244A02EBE0
:101D60008100FFF7ADFDF0B9201DC0EB0010204948
:101D700031F8200000EB0010642190FBF1F081B2FB
:101D8000201D00EB4000184A02EB4002134B201DBF
:101D9000185C22F810101946201D085C401CC1B2C6
:101DA0001A46201D115400200B49085500210A4AEB
:101DB000201D11540120FFF76FF910BD00040040F1
:101DC000180000201C0000200008014066000020D0
:101DD0001A000020EE020020C8000020A60000200B
:101DE000220000201E0000207000002020000020A3
:101DF000D2000020141E0008000000205400000043
:101E000028010008681E0008540000200419000082
:101E10004401000800A24A04000000000000000085
:101E2000010203040607080900000000F401140081
:101E3000A406F609000B01010100010204010300E0
:101E40000000000000000000000000000000000092
:101E50000000000000000000000000000000000082
:081E600000000000000000007A
:04000005080000ED02
:00000001FF
