:020000040800F2
:102000006819002089210008DD2E0008ED2C000849
:10201000D92E000839220008093A00080000000003
:10202000000000000000000000000000B9320008BD
:10203000B92800080000000005320008013500083A
:10204000A3210008A3210008A3210008A321000860
:10205000A3210008A3210008A3210008A321000850
:10206000A3210008A3210008A3210008A321000840
:10207000A3210008A3210008A3210008A321000830
:10208000A3210008A3210008A3210008A321000820
:1020900025390008A3210008A321000861290008B0
:1020A000A3210008A3210008A3210008A321000800
:1020B00065350008A3210008A3210008A32100081A
:1020C000A3210008A3210008A3210008A3210008E0
:1020D000A321000865380008A3210008A3210008F7
:1020E000BD280008A3210008A321000800F002F881
:1020F00000F03AF80AA090E8000C82448344AAF168
:102100000107DA4501D100F02FF8AFF2090EBAE865
:102110000F0013F0010F18BFFB1A43F0010318471B
:102120007C1F00009C1F0000103A24BF78C878C1B3
:10213000FAD8520724BF30C830C144BF04680C60CD
:10214000704700000023002400250026103A28BF15
:1021500078C1FBD8520728BF30C148BF0B60704719
:102160001FB51FBD10B510BD00F033F81146FFF7C5
:10217000F7FF01F06BFD00F051F803B4FFF7F2FF39
:1021800003BC01F043FC00000948804709480047B0
:10219000FEE7FEE7FEE7FEE7FEE7FEE7FEE7FEE717
:1021A000FEE7FEE704480549054A064B7047000074
:1021B00005350008ED20000868050020681900209A
:1021C0006809002068090020704770477047704711
:1021D0007047754600F02CF8AE4605006946534638
:1021E00020F00700854618B020B5FFF7DBFFBDE8FB
:1021F00020404FF000064FF000074FF000084FF06E
:10220000000B21F00701AC46ACE8C009ACE8C009FE
:10221000ACE8C009ACE8C0098D46704710B504466B
:10222000AFF300802046BDE81040FFF7A6BF0000D6
:10223000004870470805002000BFFEE710B50021E8
:10224000837A012202FA03F13D4A126842F0010248
:102250003B4B1A603A4A1C3212688A43384B1C3393
:102260001A60027BCAB9364A0C3212688A43344B70
:102270000C331A604288C38842EA0343304A403232
:10228000847A42F834300288838842EA03432C4A35
:102290004032847A02EBC4025360027B012A19D1D6
:1022A000274A0C3212680A43254B0C331A604288C5
:1022B000038842EA0343224A4032847A42F83430A7
:1022C000C288838842EA03431D4A4032847A02EB83
:1022D000C4025360C27A3AB9194A121D12688A437D
:1022E000174B1B1D1A6006E0154A121D12680A439F
:1022F000134B1B1D1A60028932B9114A143212683D
:102300008A430F4B14331A600289012A06D10C4A02
:10231000143212680A430A4B14331A60427B012AB2
:1023200006D1074A1C3212680A43054B1C331A6057
:10233000034A126822F00102014B1A6010BD00002E
:10234000006600401AB143690B43436102E04369F0
:102350008B434361704730B5024600200023146868
:1023600024F002041460146844F00104146000E0D6
:102370005B1C546804F001041CB94FF6FF74A342BF
:10238000F6D1546804F001040CB900206CE08C799B
:10239000012C04D1146844F08004146003E0146834
:1023A00024F080041460CC79012C04D1146844F02A
:1023B0004004146003E0146824F0400414600C7AB4
:1023C000012C04D1146844F02004146003E0146864
:1023D00024F0200414604C7A012C04D1146844F0D9
:1023E0001004146003E0146824F0100414608C7A64
:1023F000012C04D1146844F00804146003E014684C
:1024000024F008041460CC7A012C04D1146844F040
:102410000404146003E0146824F0040414608C784D
:10242000A407CD7844EA05640D7944EA05444D7962
:1024300044EA05540D886D1E2C43D461146824F0C1
:1024400001041460002300E05B1C546804F00104E4
:102450001CB14FF6FF74A342F6D1546804F0010496
:102460000CB1002000E0012030BD00002DE9F0415A
:102470008AB004460D4616461F46DDF8408001210D
:10248000042000F009FF0121480600F0F5FE4FF49A
:102490008050ADF8240003208DF8260018208DF818
:1024A000270009A92D4800F023FB4FF40060ADF888
:1024B000240048208DF8270009A9284800F018FBBF
:1024C00000208DF81E008DF81F008DF820000120DF
:1024D0008DF8210000208DF822008DF823008DF862
:1024E0001A808DF81B408DF81C608DF81D50ADF8DA
:1024F000187006A91A48FFF72EFF00208DF8120069
:102500008DF8130001208DF814000020ADF80800AC
:10251000ADF80A00ADF80C00ADF80E00ADF81000F3
:1025200001208DF8150002A8FFF788FE0122022184
:102530000B48FFF707FF14208DF8040001208DF8E9
:10254000050000208DF8060001208DF8070001A885
:1025500000F0C6FC00200AB0BDE8F0810008014090
:102560000064004010B500F5D87303EB01131B683D
:1025700003F004031372137A53B900F5D87303EB15
:1025800001131B6840F2FF7404EA5353136009E01F
:1025900000F5D87303EB01131B686FF0604404EA85
:1025A000D303536000F5D87303EB01131B6803F0EA
:1025B0000203537200F5D87303EB01135B6803F059
:1025C0000F03937200F5D87303EB01135B681B0ACA
:1025D000D37400F5D87303EB01139B68D37200F535
:1025E000D87303EB01139B681C0A147300F5D873AE
:1025F00003EB01139B681C0C547300F5D87303EBB9
:1026000001139B681B0E937300F5D87303EB011342
:10261000DB68D37300F5D87303EB0113DB681C0A86
:10262000147400F5D87303EB0113DB681C0C5474AD
:1026300000F5D87303EB0113DB681B0E937421B90B
:10264000C36843F02003C36003E0036943F0200341
:10265000036110BD10B502460020936803F080634B
:10266000B3F1806F00D110E0936803F00063B3F121
:10267000006F01D1012008E0936803F08053B3F1AB
:10268000805F01D1022000E00420042874D002F50C
:10269000C07303EB00131B6803F0010402F5C07361
:1026A00003EB00131C600B7A7BB94B7A0C8843EA6E
:1026B000445302F5C07404EB00142468234302F56C
:1026C000C07404EB0014236010E00B7A4C6843EAFA
:1026D000C4034C7A234302F5C07404EB001424684D
:1026E000234302F5C07404EB001423608B7A03F0DB
:1026F0000F038B7202F5C07303EB00135B6823F0CA
:102700000F0402F5C07303EB00135C6002F5C073A5
:1027100003EB00135B688C7A234302F5C07404EB6F
:10272000001463608B7B1C064B7B44EA03440B7BE9
:1027300044EA0323CC7A234302F5C07404EB00146B
:10274000A3608B7C1C064B7C44EA03440B7C44EA6C
:102750000323CC7B234302F5C07404EB0014E36035
:1027600002F5C07303EB00131B6843F0010402F58C
:10277000C07303EB00131C6010BD000010B50246CF
:10278000002321B1012907D002290FD109E0906867
:102790001D4C00EA04030BE090681C4C00EA0403A3
:1027A00006E090681A4C00EA040301E0002300BF31
:1027B00000BF184C181BA34216D007DC83B16FF082
:1027C0008060184470B1022818D111E0B0F5007F84
:1027D00010D0114C204448B1B0F5003F0ED10BE0B1
:1027E00002230DE000230BE0002309E0002307E0B3
:1027F000012305E0012303E0012301E0002300BFE2
:1028000000BFD8B210BD00000300000400030008A0
:1028100000000310000100080001FFF7F0B585B0CB
:1028200007460D46002419480078009017480078A4
:10283000019000208DF808008DF809008DF80A50ED
:1028400000BF05E0395D0DF10B000155601C84B23D
:10285000AC42F7DB69460E48FFF7FCFE0646002453
:1028600001E0601C84B231460948FFF787FF18B9C0
:1028700040F6FF708442F4DB40F6FF70844202DBD6
:10288000012005B0F0BD0020FBE70000360000206D
:102890000064004021B1026842F00102026004E0DD
:1028A00002684FF6FE731A4002607047014648689E
:1028B00080B27047416070477047000010B54FF418
:1028C000806000F09FF801283BD181021D4800F094
:1028D000E3F990BB4FF0804000F0B9FE1A49098837
:1028E00008441A4948801A491A480078001D085CB3
:1028F0001E281CDA1548418816480078001DC0EBD8
:102900000010154A02EB8002114B12480078001D9E
:10291000185C22F8101019460E480078001D085C5B
:10292000401CC1B21A460B480078001D1154012109
:102930000A4A08480078001D11544FF4806000F0E6
:102940005BF810BD000801401A0000203E00002086
:10295000F202002022000020D6000020CC0000203F
:1029600010B54FF4007000F04DF8012834D1410249
:102970001A4800F091F958BB4FF0804000F067FE14
:1029800017490988084417490880174817490978E2
:10299000405C1E2817DA1348008814490978C1EBF7
:1029A0000111134A02EB81010F4A104B1B78D25CD4
:1029B00021F812000C480D490978405C401C0A4976
:1029C0000A4A1278885401200A49084A1278885421
:1029D0004FF4007000F010F810BD00000008014036
:1029E0001A0000203E000020F202002022000020F9
:1029F000D6000020CC00002001490860704700008C
:102A00001404014001460020034A12680A400AB13A
:102A1000012000E0002070471404014000212349F8
:102A20008279002A3AD00A46126803689A430B4614
:102A30001A600A1D126803689A430B1D1A60027916
:102A400011440A6803681A430A60184A0832126877
:102A500003689A43154B08331A601A1D12680368FD
:102A60009A43124B0C331A604279102A0ED11A1F66
:102A7000126803681A430D4B08331A601A1D126856
:102A800003681A43094B0C331A600DE00749427979
:102A900011440A6803681A430A6005E00279114488
:102AA0000A6803689A430A60704700000004014006
:102AB00030B500228B071C0F0F2303FA04F20B4BD7
:102AC0008C1053F824309343084C8D1044F8253073
:102AD00023468C1053F824308C07240F00FA04F49A
:102AE0002343024C8D1044F8253030BD08000140CE
:102AF0002DE9F04102460025002600200023002495
:102B0000002791F803C00CF00F0591F803C00CF0FA
:102B1000100CBCF1000F03D091F802C04CEA05057F
:102B200091F800C0BCF1000F31D0146800202BE0F8
:102B30004FF0010C0CFA00F3B1F800C00CEA0306E8
:102B40009E4220D183004FF00F0C0CFA03F7BC43D8
:102B500005FA03FC4CEA040491F803C0BCF1280F09
:102B600006D14FF0010C0CFA00FCC2F814C00AE0C8
:102B700091F803C0BCF1480F05D14FF0010C0CFADD
:102B800000FCC2F810C0401C0828D1D31460B1F872
:102B900000C0BCF1FF0F34DD546800202EE000F1CE
:102BA000080C4FF0010808FA0CF3B1F800C00CEA69
:102BB00003069E4221D183004FF00F0C0CFA03F75D
:102BC000BC4305FA03FC4CEA040491F803C0BCF1D1
:102BD000280F05D100F1080C08FA0CF8C2F814808F
:102BE00091F803C0BCF1480F07D100F1080C4FF079
:102BF000010808FA0CF8C2F81080401C0828CED34F
:102C00005460BDE8F0810000F0B50A4600230024BE
:102C10000021002500F00046B6F1004F02D11D4E04
:102C2000F16901E01B4E7168C0F3034583B200F403
:102C30004016B6F5401F08D121F07061154E766838
:102C400026F07066134F7E6012E000F48016B6F531
:102C5000801F06D1032606FA05F4A14341F07061F6
:102C600006E0460D360103FA06F6B14341F0706105
:102C700022B1460D360103FA06F6314300F0004654
:102C8000B6F1004F02D1034EF16101E0014E7160D7
:102C9000F0BD0000000001400246002093680B4098
:102CA0000BB1012000E000207047416170470161D5
:102CB000704700000B4909680B4A11600949091D5A
:102CC000096851600749083109689160114609682F
:102CD000526801EB5201044A926801EB92014908E3
:102CE00001607047E8F7FF1FFC02002000BFFEE70D
:102CF0000FB410B502987D281AD19DF81300012851
:102D000016D19DF8140098B99DF8150080B99DF86A
:102D1000160068B99DF8170050B99DF8180038B929
:102D20009DF8190020B99DF81A0008B900F070F854
:102D300002987F2825D11448FFF7BCFF9DF81300A7
:102D400001281ED19DF814100F480068000E814222
:102D500017D19DF815000C490968C1F30741884255
:102D60000FD19DF8160008490988C1F30721884250
:102D700007D19DF8170004490978884201D100F075
:102D8000A1FF10BC5DF814FB480000200148024977
:102D9000086070470020000808ED00E02DE9F041D0
:102DA00086B0054688461646002401950295002007
:102DB0008DF80C008DF80D008DF80E6000BF06E058
:102DC00018F804100DF10F000155601C84B2B442D4
:102DD000F6DB01A90D48FFF73DFC0746002401E0A2
:102DE000601C84B239460948FFF7C8FC012803D0AB
:102DF00040F6FF708442F3DB40F6FF70844203DB51
:102E0000012006B0BDE8F0810020FAE70064004030
:102E100008B5022005231122812100907B2000F0BB
:102E2000B5FA08BD08B50121142000F035FA4FF4B9
:102E30006040ADF8000048208DF80300694607485F
:102E4000FFF756FE0420ADF8000048208DF803007F
:102E500069460348FFF74CFE08BD00000010014022
:102E60000008014008B50121082000F015FA0121F1
:102E7000084600F011FA01210A48FFF7C5FE0820B4
:102E8000ADF8000010208DF8030003208DF802003B
:102E900069460548FFF72CFE08210348FFF707FFA6
:102EA00008BD000000023000000C0140102810DABC
:102EB00039B1084A1268012383401A43054B1A604E
:102EC00007E031B9034A1268012383409A43014B5A
:102ED0001A6070470004014000BFFEE77047000021
:102EE00070B5002100230F22C47804B3154C246868
:102EF00004F4E064C4F5E064210AC1F10403CA40AB
:102F0000447804FA03F184781440214309010E4CFB
:102F10000678A155047804F01F050124AC4005781B
:102F20006D11AD0005F1E025C5F8004109E0047818
:102F300004F01F050124AC40044D0678761145F8D5
:102F4000264070BD0CED00E000E400E080E100E010
:102F500002490143024A1160704700000000FA056F
:102F60000CED00E030B500220024038845885C1B8E
:102F7000231E01DB1D4600E05D42B5F5C87F0FDA78
:102F8000038845882B44142593FBF5F39AB2FF2A56
:102F900001DDFF2202E0232A00DA00220A8001E09C
:102FA0000B880B8030BD70B5002419E004F1B0012E
:102FB000C8B2002100F0ECF80021084600F0E8F863
:102FC0000021102000F0E4F8002505E00121002098
:102FD00000F0DEF8681CC5B2802DF7DB601CC4B2BF
:102FE000082CE3DB70BD000008B50121042000F0CF
:102FF00053F93020ADF8000010208DF803000320B5
:103000008DF8020069465448FFF772FD302152489E
:10301000FFF74DFE0121082000F03EF9E020ADF859
:10302000000010208DF8030003208DF8020069468F
:103030004A48FFF75DFDE0214848FFF738FE402190
:103040004648FFF734FE642000F022FD402143484B
:10305000FFF72BFEC82000F01BFD40213F48FFF783
:1030600026FE0021AE2000F093F80021084600F073
:103070008FF80021102000F08BF80021402000F094
:1030800087F80021812000F083F80021CF2000F094
:103090007FF80021A12000F07BF80021C82000F07B
:1030A00077F80021A62000F073F80021A82000F096
:1030B0006FF800213F2000F06BF80021D32000F0D2
:1030C00067F80021084600F063F80021D52000F0E1
:1030D0005FF80021802000F05BF80021D92000F08B
:1030E00057F80021F12000F053F80021DA2000F019
:1030F0004FF80021122000F04BF80021DB2000F0F7
:1031000047F80021402000F043F80021202000F083
:103110003FF80021022000F03BF800218D2000F054
:1031200037F80021142000F033F80021A42000F02B
:103130002FF80021A62000F02BF80021AF2000F08E
:1031400027F80021AF2000F023F8FFF72CFF002123
:10315000084600F005F808BD00080140000C0140D9
:1031600070B504460D4605F1B001C8B2002100F06B
:103170000FF8102141EA1410002100F009F804F0C2
:103180000F0141F00100002100F002F870BD0000C5
:1031900070B504460E4626B180211848FFF787FD1A
:1031A00003E080211548FFF780FD10211448FFF748
:1031B0007CFD002517E020211148FFF776FD04F083
:1031C000800020B120210D48FFF771FD03E0202190
:1031D0000A48FFF76AFD20210948FFF768FD6006ED
:1031E000040E681CC5B2082DE5DB10210448FFF76A
:1031F0005EFD80210148FFF75AFD70BD000C0140C3
:10320000000801407047000010B51948006808B96F
:10321000012000E0002016490860322000F038FC50
:103220001448D0F88C0108B9012000E000201049B2
:1032300008604FF4E17000F02BFC0E48D0F88C01D0
:1032400008B9012000E0002009490860322000F0A0
:103250001FFC0848D0F88C0108B9012000E00020CC
:10326000034908604FF4E17000F012FC10BD00004B
:103270008C8121420080214229B1064AD269024351
:10328000044BDA6104E0034AD2698243014BDA61FC
:10329000704700000010024029B1064A92690243BB
:1032A000044B9A6104E0034A92698243014B9A619C
:1032B00070470000001002407047000010B504463F
:1032C000012C06D0022C0CD0032C12D0042C1ED1C1
:1032D00016E000201149086001201149C1F8B4012D
:1032E00016E001200D49086000200D49C1F8B40125
:1032F0000EE00020094908600949C1F8B40107E05F
:103300000120064908600649C1F8B40100E000BF89
:1033100000BF0A2000F0E2FB10BD0000B081214296
:103320000080214210B50446012C06D0022C0CD09E
:10333000032C12D0042C1ED116E000201149086085
:1033400001201149C1F8BC0116E001200D490860B7
:1033500000200D49C1F8BC010EE0002009490860B9
:103360000949C1F8BC0107E0012006490860064987
:10337000C1F8BC0100E000BF00BF0A2000F0AEFBB6
:1033800010BD0000B8812142008021422DE9FC419E
:1033900007460C4615461E46DDF8208000200090AA
:1033A00001901248FFF786FC8DF800400F48006836
:1033B000000E8DF801000D480068000C8DF8020029
:1033C0000A480088000A8DF80300084800788DF844
:1033D00004008DF805508DF806608DF807800822EE
:1033E00069463846FFF7DAFCBDE8FC81480000205A
:1033F00010B500F001F810BD0CB500200190009050
:103400003348006840F480303149086000BF3048DC
:10341000006800F4003000900198401C0190009872
:1034200018B90198B0F5A06FF1D12948006800F4EF
:10343000003010B10120009001E0002000900098C1
:10344000012843D12348006840F01000214908605A
:103450000846006820F0030008600846006840F055
:10346000020008601A4840681949486008464068E8
:1034700048600846406840F48060486008464068FC
:1034800020F47C1048600846406840F4E81048602A
:103490000846006840F08070086000BF0C48006873
:1034A00000F000700028F9D00948406820F00300BF
:1034B000074948600846406840F00200486000BF85
:1034C0000348406800F00C000828F9D10CBD00004A
:1034D0000010024000200240042808D14FF0E021F3
:1034E000096941F004014FF0E022116107E04FF05B
:1034F000E021096921F004014FF0E02211617047D9
:103500007047000010B51348006840F001001149F1
:10351000086008464068104908400E49486008465F
:1035200000680E4908400B4908600846006820F40E
:10353000802008600846406820F4FE0048604FF490
:103540001F008860FFF754FF4FF0006004490860D7
:1035500010BD0000001002400000FFF8FFFFF6FE63
:1035600008ED00E010B50121880700F073F801288C
:1035700011D109480088401C074908800846008886
:1035800041F27071884202DD08460349088001213A
:10359000880700F04DF810BD4400002030B589B018
:1035A00005460C4601210420FFF776FE012102208A
:1035B000FFF762FE01210846FFF76EFEC020ADF85E
:1035C000200018208DF8230003208DF8220008A980
:1035D0001548FFF78DFAADF81850ADF814400020EB
:1035E000ADF81A00ADF8160005A9104800F0E8F88B
:1035F0006020ADF804000120ADF806000020ADF811
:103600000A00ADF80C0001A9084800F035F801A93E
:10361000064800F07DF80121044800F00CF800F0A5
:10362000F9F909B030BD0000000801400004004075
:10363000CA430282704721B1028842F0010202802F
:1036400004E002884FF6FE731A400280704701467C
:10365000888C704702460020138A0B400BB1012072
:1036600000E0002070471AB183890B43838102E098
:1036700083898B438381704770B500240022002327
:10368000058C4FF6FE7635400584028C8388048BCA
:103690004FF68F752C40B51E2C400D882C43751E9F
:1036A0002A400D892A434D882A43144DA8420BD045
:1036B000134DA84208D0134DA84205D0124DA84280
:1036C00002D0124DA84213D14FF6F7752A404D890A
:1036D0002A434FF6FB752A408D882A434FF6FF6533
:1036E0002B404FF6FF552B408D892B43CD892B4323
:1036F00083800483CD888586028470BD002C0140C0
:1037000000340140004001400044014000480140B5
:1037100070B5002400220023058C4FF6EF7635406B
:103720000584028C8388048B48F6FF752C404FF685
:10373000FF452C400D884FF6FF7606EA05252C4301
:103740004FF6DF752A400D8906EA05152A434D8894
:1037500006EA05152A43154DA84202D0144DA84289
:103760001DD14FF67F752A404D894FF6FF7606EA48
:1037700005152A434FF6BF752A408D8806EA0515C0
:103780002A434FF6FF352B404FF2FF752B408D89B2
:1037900006EA85052B43CD8906EA85052B43838000
:1037A0000483CD880587028470BD0000002C014091
:1037B00000340140818670470187704781847047DB
:1037C000002202881D4B98420ED01D4B98420BD010
:1037D000B0F1804F08D01B4B984205D01A4B98424D
:1037E00002D01A4B984204D14FF68F731A404B887F
:1037F0001A43174B984207D0164B984204D04FF605
:10380000FF431A40CB881A4302808B8883850B883C
:1038100003850A4B98420BD0094B984208D00E4BB7
:10382000984205D00D4B984202D00D4B984201D1E1
:103830000B7A03860123838270470000002C01402D
:10384000003401400004004000080040000C00402B
:1038500000100040001400400040014000440140BE
:103860000048014010B5002400BF40F22441134835
:1038700000F02EF800B311480488001D04880120D0
:103880000F49087000210F48FFF704F80D48FFF7B3
:103890000DF84FF6FF71081A0B49088000200B49FC
:1038A000094A128888544FF6FF710648FFF702F85C
:1038B00001210448FEF7EEFF10BD00000038014072
:1038C0005600002058000240540000200803002049
:1038D00070B50246002400230025002040F66A1639
:1038E000B14200D100BFC1F3421501F01F03012610
:1038F00006FA03F3012D02D19689334006E0022D2A
:1039000002D1168A334001E0968A33400C12012618
:1039100006FA04F41688344013B10CB1012000E01B
:10392000002070BD10B586B0002401AA0021054812
:10393000FEF718FE0598009001A80FC8FFF7D8F908
:1039400006B010BD0064004070B505460024002696
:1039500000BF09E029198978204604EBD072521083
:10396000064B9954A01CC4B2112CF3DB0821034868
:10397000FEF754FF0646304670BD00002C000020C4
:1039800010B5012417E00020184908700FE018480E
:1039900016490978405C17490870084601781648AE
:1039A00000F0DEF911480078401C104908700F48FB
:1039B00000780428EBDB114800780928E3DB0124B8
:1039C0000EE00D4A02EB440104EB44020C4B03EB06
:1039D0004200FFF7C7FA00200A490855601CC4B22C
:1039E000092CEEDB01200549087010BD21000020E4
:1039F0002500002022000020580000202400002084
:103A000074000020AA00002000BFFEE7014600BFAE
:103A10007047000008B501210820FFF73DFC4FF476
:103A20007040ADF8000010208DF8030003208DF8E1
:103A3000020069460448FFF75BF84FF47041024802
:103A4000FFF735F908BD0000000C014010B56FF01C
:103A50000400FFF741FD0A4800680A49B0FBF1F095
:103A6000094908700846007800EB4001C1EBC0101E
:103A70004FF6FF7101EAC0000449088010BD000044
:103A80000000002000127A004C0000204E000020B0
:103A90000146114A12884A434FF0E0235A6100223E
:103AA0009A611A46126942F001021A6100BF4FF092
:103AB000E022106900F001021AB100F48032002AFD
:103AC000F5D04FF0E022126922F001024FF0E0231E
:103AD0001A6100229A6170474E0000200146114A87
:103AE00012784A434FF0E0235A6100229A611A4645
:103AF000126942F001021A6100BF4FF0E022106922
:103B000000F001021AB100F48032002AF5D04FF023
:103B1000E022126922F001024FF0E0231A61002234
:103B20009A6170474C0000201CB5024600230093A8
:103B300001930021002000BF4B1C12F8133012F833
:103B400011401B1BDBB20DF801304B1CD9B24B1ED0
:103B50001DF80330142B06DD4B1E1DF803301E2B01
:103B600001DA0429E8DB042901DB002000E0012060
:103B70001CBD00001FB501210420FFF78DFB0121B2
:103B80000846FFF789FB4FF40070ADF80C004820A1
:103B90008DF80F0003A92C48FEF7AAFF4FF48060B0
:103BA000ADF80C0048208DF80F0003A92648FEF759
:103BB0009FFF09210020FEF77BFF0A210020FEF76E
:103BC00077FF4FF40070019000208DF808000C2062
:103BD0008DF8090001208DF80A0001A8FEF71EFFEC
:103BE0004FF48060019000208DF808000C208DF8C3
:103BF000090001208DF80A0001A8FEF70FFF172029
:103C00008DF8000000208DF8010001208DF80200E1
:103C10008DF803006846FFF763F928208DF800004F
:103C200001208DF801008DF802008DF80300684630
:103C3000FFF756F900210920FFF738F900210A2083
:103C4000FFF734F91FBD00000008014008B5FFF779
:103C50009DF8FFF7FBFEFFF7E5F8FFF703F9FFF725
:103C6000D3FA1120144908704FF4A060FFF770F9DF
:103C700000200423082207210090FEF7F7FBFFF73E
:103C8000B3F9002140F20770FFF788FC47214FF697
:103C9000FF7000F037F8FFF76DFF0CE0FFF770FEE4
:103CA0000648FFF751FE0648006808B9012000E009
:103CB000002003490860F1E736000020580000208A
:103CC0008C8121424FF6FF7100E000BF081EA1F178
:103CD0000101FAD1012080F3138800BF00BF07481B
:103CE000006800F4E060064A1043001D034A1060BB
:103CF000BFF34F8F00BF00BFFEE700000CED00E0F8
:103D00000000FA057FB505460C4601210846FFF77D
:103D1000B3FAADF80850ADF804400020ADF80A0041
:103D2000ADF8060001A94FF08040FFF749FD0122E0
:103D300011469007FFF797FC01218807FFF77BFCEE
:103D40001C208DF8000001208DF8010002208DF864
:103D5000020001208DF803006846FFF7C1F87FBD1F
:103D600070B505460C460848007809280BDA20464D
:103D700000F00EF8054804490978445402480078D8
:103D8000401C0149087070BD24000020B3000020D1
:103D900010B504462046FFF791FA2046FFF7C2FA15
:103DA00040F28331AF48FFF705FD40F28331AD4863
:103DB000FFF702FDAC480088FFF790FE0021A948FC
:103DC000FFF7F8FC0021A748FFF7F6FCA749098890
:103DD000A54A1288881AFFF781FE4FF40071A448A3
:103DE000FEF75AFF18B90120A24908550DE04FF41B
:103DF00000719F48FEF750FF012806D100209D4921
:103E0000085501210920FFF751F84FF480619848C7
:103E1000FEF742FF20B90121964A201D11540EE001
:103E20004FF480619248FEF737FF012807D1002147
:103E3000904A201D115401210A20FFF737F8012173
:103E40000846FFF719FA01210920FFF72FF8012191
:103E50000A20FFF72BF800214FF08040FFF7AEFC5F
:103E60008549098801EB4102C2EBC1117F4A1288E2
:103E7000C2EBC100FFF732FE00210920FFF716F860
:103E800000210A20FFF712F800207C490855002184
:103E90007A4A201D11547A48005DD0B97948005DF6
:103EA00079490978884259DA7848008804EB440156
:103EB000774A02EB4101734A125D21F81200714802
:103EC000005D401C6F49085500210920FEF7EEFFF8
:103ED00044E06B48005DE8B36648005DB0B16948F6
:103EE000005D69490978884238DA6A48007804EB4D
:103EF0004401674A02EB4101624A125D21F8120057
:103F00006048005D401C5F49085527E05D48005D42
:103F10005D490978884221DAC4EB04115E4A02EB5C
:103F20008100FFF701FEA8B9C4EB04105A4931F82B
:103F3000200000EB0010642190FBF1F004EB440141
:103F4000534A02EB41014F4A125D21F812004D48DD
:103F5000005D00E002E0401C4A4908554849201D28
:103F6000085C00BB4749201D085C47490978884226
:103F70006DDA46480188201D00EB4000444A02EB00
:103F80004002404B201D185C22F810101946201DDD
:103F9000085C401CC1B21A46201D115400210A20A1
:103FA000FEF784FF53E03649201D085CF8B1314923
:103FB000201D085CE0B13349201D085C32490978B6
:103FC000884244DA33480178201D00EB4000304A33
:103FD00002EB40022B4B201D185C22F810101946F2
:103FE000201D085C401CC1B21A46201D11542EE051
:103FF0002449201D085C24490978884227DA211DBC
:10400000C1EB0111244A02EB8100FFF78DFDF0B9ED
:10401000201DC0EB0010204931F8200000EB0010FB
:10402000642190FBF1F081B2201D00EB4000184AA2
:1040300002EB4002134B201D185C22F810101946A9
:10404000201D085C401CC1B21A46201D11540020DE
:104050000B49085500210A4A201D11540120FFF781
:104060000BF910BD00040040160000201A000020CB
:10407000000801406A00002018000020F202002021
:10408000CC000020AA000020200000201C000020FE
:10409000740000201E000020D6000020BC40000854
:1040A00000000020580000002821000814410008EA
:1040B00058000020101900004421000800A24A0402
:1040C00000000000000000000102030406070809C8
:1040D0000000F40114006C07F609000B0201010056
:1040E00001020401030000000000000000000000C5
:1040F00000001100000000000000000000000000AF
:1041000000000000000000000000000000000000AF
:0441100000000000AB
:04000005080020EDE2
:00000001FF
